{
  "contractName": "PlasmaParent_submitonly",
  "abi": [
    {
      "constant": false,
      "inputs": [
        {
          "name": "header",
          "type": "bytes"
        }
      ],
      "name": "submitBlock3",
      "outputs": [
        {
          "name": "success",
          "type": "bool"
        }
      ],
      "payable": false,
      "stateMutability": "nonpayable",
      "type": "function"
    },
    {
      "constant": false,
      "inputs": [
        {
          "name": "_bn",
          "type": "uint256"
        },
        {
          "name": "_txIdx",
          "type": "uint32"
        },
        {
          "name": "_rawTx",
          "type": "bytes"
        },
        {
          "name": "_proof",
          "type": "bytes"
        }
      ],
      "name": "checkProofOnly",
      "outputs": [
        {
          "name": "_success",
          "type": "bool"
        }
      ],
      "payable": false,
      "stateMutability": "nonpayable",
      "type": "function"
    },
    {
      "constant": true,
      "inputs": [],
      "name": "lastBlockNumber",
      "outputs": [
        {
          "name": "",
          "type": "uint256"
        }
      ],
      "payable": false,
      "stateMutability": "view",
      "type": "function"
    },
    {
      "constant": true,
      "inputs": [
        {
          "name": "message",
          "type": "bytes"
        }
      ],
      "name": "createPersonalMessageTypeHash",
      "outputs": [
        {
          "name": "msgHash",
          "type": "bytes32"
        }
      ],
      "payable": false,
      "stateMutability": "view",
      "type": "function"
    },
    {
      "constant": true,
      "inputs": [
        {
          "name": "root",
          "type": "bytes32"
        },
        {
          "name": "data",
          "type": "bytes"
        },
        {
          "name": "proof",
          "type": "bytes"
        },
        {
          "name": "convertToMessageHash",
          "type": "bool"
        }
      ],
      "name": "checkProof",
      "outputs": [
        {
          "name": "",
          "type": "bool"
        }
      ],
      "payable": false,
      "stateMutability": "view",
      "type": "function"
    },
    {
      "constant": false,
      "inputs": [],
      "name": "kill",
      "outputs": [],
      "payable": false,
      "stateMutability": "nonpayable",
      "type": "function"
    },
    {
      "constant": false,
      "inputs": [
        {
          "name": "_address",
          "type": "address"
        }
      ],
      "name": "transferOwner",
      "outputs": [],
      "payable": false,
      "stateMutability": "nonpayable",
      "type": "function"
    },
    {
      "constant": true,
      "inputs": [
        {
          "name": "",
          "type": "uint256"
        }
      ],
      "name": "headers",
      "outputs": [
        {
          "name": "blockNumber",
          "type": "uint32"
        },
        {
          "name": "numTransactions",
          "type": "uint32"
        },
        {
          "name": "v",
          "type": "uint8"
        },
        {
          "name": "previousBlockHash",
          "type": "bytes32"
        },
        {
          "name": "merkleRootHash",
          "type": "bytes32"
        },
        {
          "name": "r",
          "type": "bytes32"
        },
        {
          "name": "s",
          "type": "bytes32"
        }
      ],
      "payable": false,
      "stateMutability": "view",
      "type": "function"
    },
    {
      "constant": true,
      "inputs": [],
      "name": "submitBlock3_1",
      "outputs": [
        {
          "name": "",
          "type": "uint256"
        }
      ],
      "payable": false,
      "stateMutability": "view",
      "type": "function"
    },
    {
      "constant": false,
      "inputs": [
        {
          "name": "_blockNumber",
          "type": "uint32"
        }
      ],
      "name": "updateLastBlockNumber",
      "outputs": [
        {
          "name": "success",
          "type": "bool"
        }
      ],
      "payable": false,
      "stateMutability": "nonpayable",
      "type": "function"
    },
    {
      "constant": true,
      "inputs": [],
      "name": "blockHeaderLength",
      "outputs": [
        {
          "name": "",
          "type": "uint32"
        }
      ],
      "payable": false,
      "stateMutability": "view",
      "type": "function"
    },
    {
      "constant": true,
      "inputs": [],
      "name": "submitBlock3_6",
      "outputs": [
        {
          "name": "",
          "type": "uint8"
        }
      ],
      "payable": false,
      "stateMutability": "view",
      "type": "function"
    },
    {
      "constant": true,
      "inputs": [],
      "name": "submitBlock3_3",
      "outputs": [
        {
          "name": "",
          "type": "uint8"
        }
      ],
      "payable": false,
      "stateMutability": "view",
      "type": "function"
    },
    {
      "constant": true,
      "inputs": [],
      "name": "submitBlock3_5",
      "outputs": [
        {
          "name": "",
          "type": "bytes32"
        }
      ],
      "payable": false,
      "stateMutability": "view",
      "type": "function"
    },
    {
      "constant": true,
      "inputs": [],
      "name": "owner",
      "outputs": [
        {
          "name": "",
          "type": "address"
        }
      ],
      "payable": false,
      "stateMutability": "view",
      "type": "function"
    },
    {
      "constant": true,
      "inputs": [],
      "name": "submitBlock3_2",
      "outputs": [
        {
          "name": "",
          "type": "uint8"
        }
      ],
      "payable": false,
      "stateMutability": "view",
      "type": "function"
    },
    {
      "constant": true,
      "inputs": [],
      "name": "PreviousBlockPersonalHashLength",
      "outputs": [
        {
          "name": "",
          "type": "uint256"
        }
      ],
      "payable": false,
      "stateMutability": "view",
      "type": "function"
    },
    {
      "constant": true,
      "inputs": [],
      "name": "submitBlock3_4",
      "outputs": [
        {
          "name": "",
          "type": "address"
        }
      ],
      "payable": false,
      "stateMutability": "view",
      "type": "function"
    },
    {
      "inputs": [],
      "payable": false,
      "stateMutability": "nonpayable",
      "type": "constructor"
    },
    {
      "payable": true,
      "stateMutability": "payable",
      "type": "fallback"
    },
    {
      "anonymous": false,
      "inputs": [
        {
          "indexed": true,
          "name": "_signer",
          "type": "address"
        },
        {
          "indexed": true,
          "name": "_blockNumber",
          "type": "uint32"
        },
        {
          "indexed": true,
          "name": "_blockHash",
          "type": "bytes32"
        }
      ],
      "name": "HeaderSubmittedEvent",
      "type": "event"
    }
  ],
  "bytecode": "0x606060405260006001556089600360006101000a81548163ffffffff021916908363ffffffff1602179055506040805190810160405280601a81526020017f19457468657265756d205369676e6564204d6573736167653a0a0000000000008152506004908051906020019062000078929190620000cb565b5034156200008557600080fd5b336000806101000a81548173ffffffffffffffffffffffffffffffffffffffff021916908373ffffffffffffffffffffffffffffffffffffffff1602179055506200017a565b828054600181600116156101000203166002900490600052602060002090601f016020900481019282601f106200010e57805160ff19168380011785556200013f565b828001600101855582156200013f579182015b828111156200013e57825182559160200191906001019062000121565b5b5090506200014e919062000152565b5090565b6200017791905b808211156200017357600081600090555060010162000159565b5090565b90565b611bc9806200018a6000396000f3006060604052600436106100fc576000357c0100000000000000000000000000000000000000000000000000000000900463ffffffff16806303e63bdb146101015780631b62a7a1146101765780632552317c14610246578063281c6ffd1461026f5780633e1ec011146102e857806341c0e1b5146103b85780634fb2e45d146103cd57806356f90d791461040657806358d44bbc146104a557806358e521a5146104ce578063683493241461050f5780636866cac31461054457806384d90651146105735780638a81af86146105a25780638da5cb5b146105d35780639dede309146106285780639ec5356214610657578063a0012ac414610680575b600080fd5b341561010c57600080fd5b61015c600480803590602001908201803590602001908080601f016020809104026020016040519081016040528093929190818152602001838380828437820191505050505050919050506106d5565b604051808215151515815260200191505060405180910390f35b341561018157600080fd5b61022c600480803590602001909190803563ffffffff1690602001909190803590602001908201803590602001908080601f0160208091040260200160405190810160405280939291908181526020018383808284378201915050505050509190803590602001908201803590602001908080601f01602080910402602001604051908101604052809392919081815260200183838082843782019150505050505091905050610f67565b604051808215151515815260200191505060405180910390f35b341561025157600080fd5b610259610fb9565b6040518082815260200191505060405180910390f35b341561027a57600080fd5b6102ca600480803590602001908201803590602001908080601f01602080910402602001604051908101604052809392919081815260200183838082843782019150505050505091905050610fbf565b60405180826000191660001916815260200191505060405180910390f35b34156102f357600080fd5b61039e60048080356000191690602001909190803590602001908201803590602001908080601f0160208091040260200160405190810160405280939291908181526020018383808284378201915050505050509190803590602001908201803590602001908080601f01602080910402602001604051908101604052809392919081815260200183838082843782019150505050505091908035151590602001909190505061114d565b604051808215151515815260200191505060405180910390f35b34156103c357600080fd5b6103cb611342565b005b34156103d857600080fd5b610404600480803573ffffffffffffffffffffffffffffffffffffffff169060200190919050506113d7565b005b341561041157600080fd5b6104276004808035906020019091905050611475565b604051808863ffffffff1663ffffffff1681526020018763ffffffff1663ffffffff1681526020018660ff1660ff168152602001856000191660001916815260200184600019166000191681526020018360001916600019168152602001826000191660001916815260200197505050505050505060405180910390f35b34156104b057600080fd5b6104b86114e4565b6040518082815260200191505060405180910390f35b34156104d957600080fd5b6104f5600480803563ffffffff169060200190919050506114ea565b604051808215151515815260200191505060405180910390f35b341561051a57600080fd5b61052261155d565b604051808263ffffffff1663ffffffff16815260200191505060405180910390f35b341561054f57600080fd5b610557611573565b604051808260ff1660ff16815260200191505060405180910390f35b341561057e57600080fd5b610586611586565b604051808260ff1660ff16815260200191505060405180910390f35b34156105ad57600080fd5b6105b5611599565b60405180826000191660001916815260200191505060405180910390f35b34156105de57600080fd5b6105e661159f565b604051808273ffffffffffffffffffffffffffffffffffffffff1673ffffffffffffffffffffffffffffffffffffffff16815260200191505060405180910390f35b341561063357600080fd5b61063b6115c4565b604051808260ff1660ff16815260200191505060405180910390f35b341561066257600080fd5b61066a6115d7565b6040518082815260200191505060405180910390f35b341561068b57600080fd5b6106936115e6565b604051808273ffffffffffffffffffffffffffffffffffffffff1673ffffffffffffffffffffffffffffffffffffffff16815260200191505060405180910390f35b60008060008060008060008060008060008060006106f1611b30565b6000809054906101000a900473ffffffffffffffffffffffffffffffffffffffff1673ffffffffffffffffffffffffffffffffffffffff163373ffffffffffffffffffffffffffffffffffffffff1614151561074c57600080fd5b60006005819055506000600660016101000a81548160ff021916908360ff1602179055506000600660026101000a81548173ffffffffffffffffffffffffffffffffffffffff021916908373ffffffffffffffffffffffffffffffffffffffff1602179055506000600860006101000a81548160ff021916908360ff160217905550600360009054906101000a900463ffffffff1663ffffffff168f51141515610801578e5160058190555060019d50610f55565b60096005819055506108148f600061160c565b7c010000000000000000000000000000000000000000000000000000000090049c506108418f600461160c565b7c010000000000000000000000000000000000000000000000000000000090049b506108708f60048001611700565b9a506108828f60206004800101611700565b99506108968f6020806004800101016117d9565b7f0100000000000000000000000000000000000000000000000000000000000000900498506108d08f600160208060048001010101611700565b97506108e78f602160208060048001010101611700565b96508c63ffffffff169550600180540186141515610924576005600660006101000a81548160ff021916908360ff16021790555060019d50610f55565b6009600660006101000a81548160ff021916908360ff1602179055506000600154141515610b6957600260006001548152602001908152602001600020945060046041602080600480010101016001028660000160009054906101000a900463ffffffff168760000160049054906101000a900463ffffffff16886001015489600201548a60000160089054906101000a900460ff168b600301548c60040154604051808a805460018160011615610100020316600290048015610a1f5780601f106109fd576101008083540402835291820191610a1f565b820191906000526020600020905b815481529060010190602001808311610a0b575b505089600019166000191681526020018863ffffffff1663ffffffff167c01000000000000000000000000000000000000000000000000000000000281526004018763ffffffff1663ffffffff167c0100000000000000000000000000000000000000000000000000000000028152600401866000191660001916815260200185600019166000191681526020018460ff1660ff167f0100000000000000000000000000000000000000000000000000000000000000028152600101836000191660001916815260200182600019166000191681526020019950505050505050505050604051809103902093508a600019168460001916141515610b4c57604160208060048001010101600660016101000a81548160ff021916908360ff16021790555060019d50610f55565b6009600660016101000a81548160ff021916908360ff1602179055505b60046020806004800101016001028e8e8e8e6040518087805460018160011615610100020316600290048015610bd65780601f10610bb4576101008083540402835291820191610bd6565b820191906000526020600020905b815481529060010190602001808311610bc2575b505086600019166000191681526020018563ffffffff1663ffffffff167c01000000000000000000000000000000000000000000000000000000000281526004018463ffffffff1663ffffffff167c010000000000000000000000000000000000000000000000000000000002815260040183600019166000191681526020018260001916600019168152602001965050505050505060405180910390209250601b8960ff161015610c8957601b890198505b6001838a8a8a604051600081526020016040526000604051602001526040518085600019166000191681526020018460ff1660ff16815260200183600019166000191681526020018260001916600019168152602001945050505050602060405160208103908084039060008661646e5a03f11515610d0757600080fd5b50506020604051035191506000809054906101000a900473ffffffffffffffffffffffffffffffffffffffff1673ffffffffffffffffffffffffffffffffffffffff168273ffffffffffffffffffffffffffffffffffffffff16141515610dbd5781600660026101000a81548173ffffffffffffffffffffffffffffffffffffffff021916908373ffffffffffffffffffffffffffffffffffffffff160217905550826007816000191690555060019d50610f55565b6009600860006101000a81548160ff021916908360ff16021790555060e0604051908101604052808e63ffffffff1681526020018d63ffffffff1681526020018a60ff1681526020018c6000191681526020018b600019168152602001896000191681526020018860001916815250905060018054016001819055508060026000600154815260200190815260200160002060008201518160000160006101000a81548163ffffffff021916908363ffffffff16021790555060208201518160000160046101000a81548163ffffffff021916908363ffffffff16021790555060408201518160000160086101000a81548160ff021916908360ff160217905550606082015181600101906000191690556080820151816002019060001916905560a0820151816003019060001916905560c0820151816004019060001916905590505082600019168d63ffffffff168373ffffffffffffffffffffffffffffffffffffffff167fe38502f63d2cce428e6986acac6919b21e21caeefff626ecea9eae66739faed460405160405180910390a460019d505b50505050505050505050505050919050565b6000806000600260008881526020019081526020016000209150610f9282600201548686600061114d565b9050600015158115151415610faa5760009250610faf565b600192505b5050949350505050565b60015481565b6000610fc9611b89565b610fd1611b89565b610fdb84516118ae565b915061108a8260048054600181600116156101000203166002900480601f0160208091040260200160405190810160405280929190818152602001828054600181600116156101000203166002900480156110775780601f1061104c57610100808354040283529160200191611077565b820191906000526020600020905b81548152906001019060200180831161105a57829003601f168201915b5050505050611a7290919063ffffffff16565b905080846040518083805190602001908083835b6020831015156110c3578051825260208201915060208101905060208303925061109e565b6001836020036101000a03801982511681845116808217855250505050505090500182805190602001908083835b60208310151561111657805182526020820191506020810190506020830392506110f1565b6001836020036101000a03801982511681845116808217855250505050505090500192505050604051809103902092505050919050565b6000806000806000806000871561116e576111678a610fbf565b95506111d4565b896040518082805190602001908083835b6020831015156111a4578051825260208201915060208101905060208303925061117f565b6001836020036101000a038019825116818451168082178552505050505050905001915050604051809103902095505b602090505b885163ffffffff168163ffffffff1611151561132757889250600181018301915081519450886020820363ffffffff1681518110151561121557fe5b9060200101517f010000000000000000000000000000000000000000000000000000000000000090047f01000000000000000000000000000000000000000000000000000000000000000260ff7f010000000000000000000000000000000000000000000000000000000000000002167f01000000000000000000000000000000000000000000000000000000000000009004935060008460ff1611156112eb5785856040518083600019166000191681526020018260001916600019168152602001925050506040518091039020955061131c565b8486604051808360001916600019168152602001826000191660001916815260200192505050604051809103902095505b6021810190506111d9565b8a600019168660001916149650505050505050949350505050565b6000809054906101000a900473ffffffffffffffffffffffffffffffffffffffff1673ffffffffffffffffffffffffffffffffffffffff163373ffffffffffffffffffffffffffffffffffffffff1614151561139d57600080fd5b6000809054906101000a900473ffffffffffffffffffffffffffffffffffffffff1673ffffffffffffffffffffffffffffffffffffffff16ff5b6000809054906101000a900473ffffffffffffffffffffffffffffffffffffffff1673ffffffffffffffffffffffffffffffffffffffff163373ffffffffffffffffffffffffffffffffffffffff1614151561143257600080fd5b806000806101000a81548173ffffffffffffffffffffffffffffffffffffffff021916908373ffffffffffffffffffffffffffffffffffffffff16021790555050565b60026020528060005260406000206000915090508060000160009054906101000a900463ffffffff16908060000160049054906101000a900463ffffffff16908060000160089054906101000a900460ff16908060010154908060020154908060030154908060040154905087565b60055481565b60008060009054906101000a900473ffffffffffffffffffffffffffffffffffffffff1673ffffffffffffffffffffffffffffffffffffffff163373ffffffffffffffffffffffffffffffffffffffff1614151561154757600080fd5b8163ffffffff1660018190555060019050919050565b600360009054906101000a900463ffffffff1681565b600860009054906101000a900460ff1681565b600660019054906101000a900460ff1681565b60075481565b6000809054906101000a900473ffffffffffffffffffffffffffffffffffffffff1681565b600660009054906101000a900460ff1681565b60416020806004800101010181565b600660029054906101000a900473ffffffffffffffffffffffffffffffffffffffff1681565b600080600090505b60048110156116f957600881028484830181518110151561163157fe5b9060200101517f010000000000000000000000000000000000000000000000000000000000000090047f0100000000000000000000000000000000000000000000000000000000000000027effffffffffffffffffffffffffffffffffffffffffffffffffffffffffffff191663ff0000007c010000000000000000000000000000000000000000000000000000000002167bffffffffffffffffffffffffffffffffffffffffffffffffffffffff19169060020a9004821891508080600101915050611614565b5092915050565b600080600090505b60208110156117d257600881028484830181518110151561172557fe5b9060200101517f010000000000000000000000000000000000000000000000000000000000000090047f0100000000000000000000000000000000000000000000000000000000000000027effffffffffffffffffffffffffffffffffffffffffffffffffffffffffffff19167fff0000000000000000000000000000000000000000000000000000000000000060010216600019169060020a9004821891508080600101915050611708565b5092915050565b600080600090505b60018110156118a75760088102848483018151811015156117fe57fe5b9060200101517f010000000000000000000000000000000000000000000000000000000000000090047f01000000000000000000000000000000000000000000000000000000000000000260ff7f010000000000000000000000000000000000000000000000000000000000000002167effffffffffffffffffffffffffffffffffffffffffffffffffffffffffffff19169060020a90048218915080806001019150506117e1565b5092915050565b6118b6611b89565b60006118c0611b89565b600080600060649450846040518059106118d75750595b9080825280601f01601f19166020018201604052509350600092505b60008714151561198a57600a8781151561190957fe5b069150600a8781151561191857fe5b049650816030017f010000000000000000000000000000000000000000000000000000000000000002848480600101955081518110151561195557fe5b9060200101907effffffffffffffffffffffffffffffffffffffffffffffffffffffffffffff1916908160001a9053506118f3565b826040518059106119985750595b9080825280601f01601f19166020018201604052509550600090505b82811015611a6557838160018503038151811015156119cf57fe5b9060200101517f010000000000000000000000000000000000000000000000000000000000000090047f0100000000000000000000000000000000000000000000000000000000000000028682815181101515611a2857fe5b9060200101907effffffffffffffffffffffffffffffffffffffffffffffffffffffffffffff1916908160001a90535080806001019150506119b4565b8595505050505050919050565b611a7a611b89565b6000825184510190506000811415611a9157611b29565b80604051805910611a9f5750595b9080825280601f01601f19166020018201604052509150600080602084016000611ad76020890193506020601f8a5101049150611afa565b600094506020880193508851602001870192506020601f895101049150611b1a90505b818511815760208502808401935080850151845260018601955050611afa565b60006020870188015250505050505b5092915050565b60e060405190810160405280600063ffffffff168152602001600063ffffffff168152602001600060ff168152602001600080191681526020016000801916815260200160008019168152602001600080191681525090565b6020604051908101604052806000815250905600a165627a7a723058204c9517f57ab66ce85c759326a66022ab8c5a73ef28ff91583a7905e08d8594620029",
  "source": "/* pragma solidity ^0.4.18; */\npragma solidity ^0.4.8;\n\nlibrary Bytes {\n  function concat(bytes memory self, bytes memory bts) internal view returns (bytes memory newBts) {\n    uint totLen = self.length + bts.length;\n    if (totLen == 0)\n      return;\n    newBts = new bytes(totLen);\n    assembly {\n        let i := 0\n        let inOffset := 0\n        let outOffset := add(newBts, 0x20)\n        let words := 0\n        let tag := tag_bts\n      tag_self:\n        inOffset := add(self, 0x20)\n        words := div(add(mload(self), 31), 32)\n        jump(tag_loop)\n      tag_bts:\n        i := 0\n        inOffset := add(bts, 0x20)\n        outOffset := add(newBts, add(0x20, mload(self)))\n        words := div(add(mload(bts), 31), 32)\n        tag := tag_end\n      tag_loop:\n        jumpi(tag, gt(i, words))\n        {\n          let offset := mul(i, 32)\n          outOffset := add(outOffset, offset)\n          mstore(outOffset, mload(add(inOffset, offset)))\n          i := add(i, 1)\n        }\n        jump(tag_loop)\n      tag_end:\n        mstore(add(newBts, add(totLen, 0x20)), 0)\n    }\n  }\n\n  function uintToBytes(uint self) internal pure returns (bytes memory s) {\n    uint maxlength = 100;\n    bytes memory reversed = new bytes(maxlength);\n    uint i = 0;\n    while (self != 0) {\n      uint remainder = self % 10;\n      self = self / 10;\n      reversed[i++] = byte(48 + remainder);\n    }\n    s = new bytes(i);\n    for (uint j = 0; j < i; j++) {\n      s[j] = reversed[i - 1 - j];\n    }\n    return s;\n  }\n}\n\ncontract PlasmaParent_submitonly {\n\n  // The owner\n  address public owner;\n\n  // TokenParent Contract Address\n  // CrowdsaleToken public token;\n  /* address public token; */\n\n  // Modifiers: only owner\n  modifier onlyOwner {\n    if (msg.sender != owner) revert();\n    _;\n  }\n  /* // Modifiers: only token\n  modifier onlyToken {\n    if (msg.sender != address(token)) revert();\n    _;\n  } */\n\n  /* // Modifiers: only token\n  modifier onlyTokenOrOwner {\n    if (msg.sender != address(token) && msg.sender != owner) revert();\n    _;\n  } */\n\n  // Constructor\n  function PlasmaParent_submitonly() public {\n    owner = msg.sender;\n/*\n    if ( address(_token) != 0 ){\n      token = _token;\n    } */\n  }\n\n  /* // set token address\n  function setToken(address _token) public onlyOwner {\n    token = _token;\n  } */\n\n  // change ownerheaders\n  function transferOwner(address _address) public onlyOwner {\n    owner = _address;\n  }\n\n  // kill contract itself\n  function kill() onlyOwner public {\n      selfdestruct(owner);\n  }\n\n  // fallback for ether\n  function() payable public {\n    revert();\n  }\n\n  //\n  // for PLASMA\n  //\n\n  // library\n  using Bytes for *;\n\n  // variables\n  uint256 public lastBlockNumber = 0;\n\n  // A list of Plasma blocks\n  struct Header {\n      uint32 blockNumber;\n      uint32 numTransactions;\n      uint8 v;\n      bytes32 previousBlockHash;\n      bytes32 merkleRootHash;\n      bytes32 r;\n      bytes32 s;\n  }\n  mapping (uint256 => Header) public headers;\n\n  uint32 public blockHeaderLength = 137;\n\n  uint256 constant SignatureLength = 65;\n  uint256 constant BlockNumberLength = 4;\n  uint256 constant TxNumberLength = 4;\n  uint256 constant PreviousHashLength = 32;\n  uint256 constant MerkleRootHashLength = 32;\n\n  // CAN NOT COMPILE THIS LINE!!!!\n  // NEED TO USE bytes32 ???\n  /* bytes constant PersonalMessagePrefixBytes = \"\\x19Ethereum Signed Message:\\n\"; */\n  bytes PersonalMessagePrefixBytes = \"\\x19Ethereum Signed Message:\\n\";\n\n\n  uint256 constant public PreviousBlockPersonalHashLength = BlockNumberLength +\n                                                TxNumberLength +\n                                                PreviousHashLength +\n                                                MerkleRootHashLength +\n                                                SignatureLength;\n  uint256 constant NewBlockPersonalHashLength = BlockNumberLength +\n                                                      TxNumberLength +\n                                                      PreviousHashLength +\n                                                      MerkleRootHashLength;\n\n\n  //\n  // convenient helper functions\n  //\n  function extract32(bytes data, uint pos) pure internal returns (bytes32 result) {\n    for (uint256 i = 0; i < 32; i++) {\n      result ^= (bytes32(0xff00000000000000000000000000000000000000000000000000000000000000)&data[i+pos])>>(i*8);\n    }\n  }\n\n  function extract20(bytes data, uint pos) pure internal returns (bytes20 result) {\n    for (uint256 i = 0; i < 20; i++) {\n      result ^= (bytes20(0xff00000000000000000000000000000000000000)&data[i+pos])>>(i*8);\n    }\n  }\n\n  function extract4(bytes data, uint pos) pure internal returns (bytes4 result) {\n    for (uint256 i = 0; i < 4; i++) {\n      result ^= (bytes4(0xff000000)&data[i+pos])>>(i*8);\n    }\n  }\n\n  function extract2(bytes data, uint pos) pure internal returns (bytes2  result) {\n    for (uint256 i = 0; i < 2; i++) {\n      result ^= (bytes2(0xff00)&data[i+pos])>>(i*8);\n    }\n  }\n\n  function extract1(bytes data, uint pos) pure internal returns (bytes1  result) {\n    for (uint256 i = 0; i < 1; i++) {\n      result ^= (bytes1(0xff)&data[i+pos])>>(i*8);\n    }\n  }\n\n  //\n  // events\n  //\n\n  // when block header submitted\n  event HeaderSubmittedEvent(address indexed _signer, uint32 indexed _blockNumber, bytes32 indexed _blockHash);\n\n  // debug fucntion\n  function updateLastBlockNumber(uint32 _blockNumber) public onlyOwner returns (bool success) {\n    lastBlockNumber = uint256(uint32(_blockNumber));\n    return true;\n  }\n\n  //\n  // submit plasma block header\n  //\n\n  uint256 public submitBlock3_1;\n  uint8 public submitBlock3_2;\n  uint8 public submitBlock3_3;\n  address public submitBlock3_4;\n  bytes32 public submitBlock3_5;\n  uint8 public submitBlock3_6;\n\n  // for debugging\n  function submitBlock3(bytes header) public onlyOwner returns (bool success) {\n\n      submitBlock3_1 = 0;\n      submitBlock3_3 = 0;\n      submitBlock3_4 = 0;\n      submitBlock3_6 = 0;\n\n      if (header.length != blockHeaderLength) {\n        submitBlock3_1 = header.length;\n        return true;\n      }\n      submitBlock3_1 = 9;\n\n      uint32 blockNumber = uint32(extract4(header, 0));\n      uint32 numTransactions = uint32(extract4(header, BlockNumberLength));\n      bytes32 previousBlockHash = extract32(header, BlockNumberLength + TxNumberLength);\n      bytes32 merkleRootHash = extract32(header, BlockNumberLength + TxNumberLength + PreviousHashLength);\n      uint8 v = uint8(extract1(header, BlockNumberLength + TxNumberLength + PreviousHashLength + MerkleRootHashLength));\n      bytes32 r = extract32(header, BlockNumberLength + TxNumberLength + PreviousHashLength + MerkleRootHashLength + 1);\n      bytes32 s = extract32(header, BlockNumberLength + TxNumberLength + PreviousHashLength + MerkleRootHashLength + 33);\n      uint256 newBlockNumber = uint256(uint32(blockNumber));\n\n      if (newBlockNumber != lastBlockNumber+1) {\n        submitBlock3_2 = 5;\n        return true;\n      }\n      submitBlock3_2 = 9;\n\n      if (lastBlockNumber != 0) {\n          Header storage previousHeader = headers[lastBlockNumber];\n          bytes32 previousHash = keccak256(PersonalMessagePrefixBytes, bytes32(PreviousBlockPersonalHashLength), previousHeader.blockNumber, previousHeader.numTransactions, previousHeader.previousBlockHash, previousHeader.merkleRootHash, previousHeader.v, previousHeader.r, previousHeader.s);\n\n          if (previousHash != previousBlockHash) {\n            submitBlock3_3 = uint8(PreviousBlockPersonalHashLength);\n            return true;\n          }\n          submitBlock3_3 = 9;\n      }\n\n      bytes32 newBlockHash = keccak256(PersonalMessagePrefixBytes, bytes32(NewBlockPersonalHashLength), blockNumber, numTransactions, previousBlockHash, merkleRootHash);\n\n      if (v < 27) {\n          v = v+27;\n      }\n      address signer = ecrecover(newBlockHash, v, r, s);\n\n      if (signer != owner ) {\n        submitBlock3_4 = signer;\n        submitBlock3_5 = newBlockHash;\n        return true;\n      }\n\n      submitBlock3_6 = 9;\n\n      Header memory newHeader = Header({\n          blockNumber: blockNumber,\n          numTransactions: numTransactions,\n          previousBlockHash: previousBlockHash,\n          merkleRootHash: merkleRootHash,\n          v: v,\n          r: r,\n          s: s\n      });\n      lastBlockNumber = lastBlockNumber+1;\n      headers[lastBlockNumber] = newHeader;\n      HeaderSubmittedEvent(signer, blockNumber, newBlockHash);\n      return true;\n  }\n\n  // for proof\n  function createPersonalMessageTypeHash(bytes memory message) public view returns (bytes32 msgHash) {\n      // bytes memory prefixBytes = \"\\x19Ethereum Signed Message:\\n\";\n      bytes memory lengthBytes = message.length.uintToBytes();\n      // bytes memory prefix = prefixBytes.concat(lengthBytes);\n      bytes memory prefix = PersonalMessagePrefixBytes.concat(lengthBytes);\n      return keccak256(prefix, message);\n  }\n\n  // check proof\n  function checkProof(\n    bytes32 root,\n    bytes data,\n    bytes proof,\n    bool convertToMessageHash) view public returns (bool) {\n\n    bytes32 h;\n    if (convertToMessageHash) {\n      h = createPersonalMessageTypeHash(data);\n    } else {\n      h = keccak256(data);\n    }\n\n    bytes32 elProvided;\n    uint8 rightElementProvided;\n    uint32 loc;\n    uint32 elLoc;\n\n    for (uint32 i = 32; i <= uint32(proof.length); i += 33) {\n      assembly {\n        loc  := proof\n        elLoc := add(loc, add(i, 1))\n        elProvided := mload(elLoc)\n      }\n      rightElementProvided = uint8(bytes1(0xff)&proof[i-32]);\n      if (rightElementProvided > 0) {\n        h = keccak256(h, elProvided);\n      } else {\n        h = keccak256(elProvided, h);\n      }\n    }\n    return h == root;\n  }\n\n  // check proof\n  function checkProofOnly(uint256 _bn, uint32 _txIdx, bytes _rawTx, bytes _proof) returns (bool _success) {\n\n    // get header\n    Header header = headers[_bn];\n\n    bool validProof = checkProof(header.merkleRootHash, _rawTx, _proof, false);\n    if ( validProof == false ) {\n      return false;\n    }\n    return true;\n  }\n}\n",
  "sourcePath": "/Users/kouohhashi/Desktop/plasma_test/plasma_ish/smart_contracts/contracts/PlasmaParent_submitonly.sol",
  "compiler": {
    "name": "solc",
    "version": "0.4.18+commit.9cf6e910.Emscripten.clang"
  },
  "schemaVersion": "1.0.1",
  "updatedAt": "2018-04-29T19:30:49.187Z"
}