{
  "contractName": "PlasmaChild_submitonly",
  "abi": [
    {
      "constant": false,
      "inputs": [
        {
          "name": "_flg",
          "type": "bool"
        }
      ],
      "name": "setProcessing",
      "outputs": [
        {
          "name": "success",
          "type": "bool"
        }
      ],
      "payable": false,
      "stateMutability": "nonpayable",
      "type": "function"
    },
    {
      "constant": true,
      "inputs": [
        {
          "name": "",
          "type": "uint32"
        }
      ],
      "name": "plasmaBlockHeaders",
      "outputs": [
        {
          "name": "blockNumber",
          "type": "uint32"
        },
        {
          "name": "numTransactions",
          "type": "uint32"
        },
        {
          "name": "previousBlockHash",
          "type": "bytes32"
        },
        {
          "name": "merkleRootHash",
          "type": "bytes32"
        },
        {
          "name": "v",
          "type": "uint8"
        },
        {
          "name": "r",
          "type": "bytes32"
        },
        {
          "name": "s",
          "type": "bytes32"
        },
        {
          "name": "txHashOnMainnet",
          "type": "bytes32"
        },
        {
          "name": "start_childnet_bn",
          "type": "uint256"
        },
        {
          "name": "end_childnet_bn",
          "type": "uint256"
        }
      ],
      "payable": false,
      "stateMutability": "view",
      "type": "function"
    },
    {
      "constant": true,
      "inputs": [],
      "name": "processing",
      "outputs": [
        {
          "name": "",
          "type": "bool"
        }
      ],
      "payable": false,
      "stateMutability": "view",
      "type": "function"
    },
    {
      "constant": false,
      "inputs": [],
      "name": "kill",
      "outputs": [],
      "payable": false,
      "stateMutability": "nonpayable",
      "type": "function"
    },
    {
      "constant": false,
      "inputs": [
        {
          "name": "_address",
          "type": "address"
        }
      ],
      "name": "transferOwner",
      "outputs": [],
      "payable": false,
      "stateMutability": "nonpayable",
      "type": "function"
    },
    {
      "constant": true,
      "inputs": [],
      "name": "aaa2",
      "outputs": [
        {
          "name": "",
          "type": "uint8"
        }
      ],
      "payable": false,
      "stateMutability": "view",
      "type": "function"
    },
    {
      "constant": true,
      "inputs": [],
      "name": "max_childnet_bn_included",
      "outputs": [
        {
          "name": "",
          "type": "uint256"
        }
      ],
      "payable": false,
      "stateMutability": "view",
      "type": "function"
    },
    {
      "constant": true,
      "inputs": [],
      "name": "ownerAddress",
      "outputs": [
        {
          "name": "",
          "type": "address"
        }
      ],
      "payable": false,
      "stateMutability": "view",
      "type": "function"
    },
    {
      "constant": true,
      "inputs": [],
      "name": "aaa1",
      "outputs": [
        {
          "name": "",
          "type": "uint8"
        }
      ],
      "payable": false,
      "stateMutability": "view",
      "type": "function"
    },
    {
      "constant": false,
      "inputs": [
        {
          "name": "_bn",
          "type": "uint32"
        },
        {
          "name": "_txCount",
          "type": "uint32"
        },
        {
          "name": "_parentHash",
          "type": "bytes32"
        },
        {
          "name": "_merkleRootHash",
          "type": "bytes32"
        },
        {
          "name": "_v",
          "type": "uint8"
        },
        {
          "name": "_r",
          "type": "bytes32"
        },
        {
          "name": "_s",
          "type": "bytes32"
        },
        {
          "name": "txHashOnMainnet",
          "type": "bytes32"
        },
        {
          "name": "max_bn_will_include",
          "type": "uint256"
        }
      ],
      "name": "updatePlasmaBlockHeader",
      "outputs": [
        {
          "name": "success",
          "type": "bool"
        }
      ],
      "payable": false,
      "stateMutability": "nonpayable",
      "type": "function"
    },
    {
      "constant": false,
      "inputs": [],
      "name": "resetPlasmaChild",
      "outputs": [
        {
          "name": "success",
          "type": "bool"
        }
      ],
      "payable": false,
      "stateMutability": "nonpayable",
      "type": "function"
    },
    {
      "constant": false,
      "inputs": [
        {
          "name": "_bn",
          "type": "uint32"
        },
        {
          "name": "_txCount",
          "type": "uint32"
        },
        {
          "name": "_parentHash",
          "type": "bytes32"
        },
        {
          "name": "_merkleRootHash",
          "type": "bytes32"
        },
        {
          "name": "_v",
          "type": "uint8"
        },
        {
          "name": "_r",
          "type": "bytes32"
        },
        {
          "name": "_s",
          "type": "bytes32"
        },
        {
          "name": "txHashOnMainnet",
          "type": "bytes32"
        },
        {
          "name": "max_bn_will_include",
          "type": "uint256"
        }
      ],
      "name": "completePlasmaBlockHeader",
      "outputs": [
        {
          "name": "success",
          "type": "bool"
        }
      ],
      "payable": false,
      "stateMutability": "nonpayable",
      "type": "function"
    },
    {
      "constant": true,
      "inputs": [],
      "name": "current_plasma_bn",
      "outputs": [
        {
          "name": "",
          "type": "uint256"
        }
      ],
      "payable": false,
      "stateMutability": "view",
      "type": "function"
    },
    {
      "inputs": [],
      "payable": false,
      "stateMutability": "nonpayable",
      "type": "constructor"
    },
    {
      "payable": true,
      "stateMutability": "payable",
      "type": "fallback"
    },
    {
      "anonymous": false,
      "inputs": [
        {
          "indexed": false,
          "name": "bn",
          "type": "uint256"
        }
      ],
      "name": "NewPlasmaBlockCreated",
      "type": "event"
    }
  ],
  "bytecode": "0x6060604052600160005560006001556000600260006101000a81548160ff0219169083151502179055506000600460146101000a81548160ff021916908360ff1602179055506000600460156101000a81548160ff021916908360ff160217905550341561006c57600080fd5b33600460006101000a81548173ffffffffffffffffffffffffffffffffffffffff021916908373ffffffffffffffffffffffffffffffffffffffff160217905550610bbe806100bc6000396000f3006060604052600436106100c5576000357c0100000000000000000000000000000000000000000000000000000000900463ffffffff1680630f792235146100ca578063332bf025146101075780633d6cfcd1146101c957806341c0e1b5146101f65780634fb2e45d1461020b57806387ae9563146102445780638bb44ff4146102735780638f84aa091461029c578063a8ebc70d146102f1578063ba5c794c14610320578063de60be31146103c6578063f76a1a99146103f3578063fee90ad814610499575b600080fd5b34156100d557600080fd5b6100ed600480803515159060200190919050506104c2565b604051808215151515815260200191505060405180910390f35b341561011257600080fd5b61012e600480803563ffffffff16906020019091905050610543565b604051808b63ffffffff1663ffffffff1681526020018a63ffffffff1663ffffffff168152602001896000191660001916815260200188600019166000191681526020018760ff1660ff1681526020018660001916600019168152602001856000191660001916815260200184600019166000191681526020018381526020018281526020019a505050505050505050505060405180910390f35b34156101d457600080fd5b6101dc6105c4565b604051808215151515815260200191505060405180910390f35b341561020157600080fd5b6102096105d7565b005b341561021657600080fd5b610242600480803573ffffffffffffffffffffffffffffffffffffffff1690602001909190505061066e565b005b341561024f57600080fd5b61025761070e565b604051808260ff1660ff16815260200191505060405180910390f35b341561027e57600080fd5b610286610721565b6040518082815260200191505060405180910390f35b34156102a757600080fd5b6102af610727565b604051808273ffffffffffffffffffffffffffffffffffffffff1673ffffffffffffffffffffffffffffffffffffffff16815260200191505060405180910390f35b34156102fc57600080fd5b61030461074d565b604051808260ff1660ff16815260200191505060405180910390f35b341561032b57600080fd5b6103ac600480803563ffffffff1690602001909190803563ffffffff16906020019091908035600019169060200190919080356000191690602001909190803560ff16906020019091908035600019169060200190919080356000191690602001909190803560001916906020019091908035906020019091905050610760565b604051808215151515815260200191505060405180910390f35b34156103d157600080fd5b6103d96108ac565b604051808215151515815260200191505060405180910390f35b34156103fe57600080fd5b61047f600480803563ffffffff1690602001909190803563ffffffff16906020019091908035600019169060200190919080356000191690602001909190803560ff16906020019091908035600019169060200190919080356000191690602001909190803560001916906020019091908035906020019091905050610938565b604051808215151515815260200191505060405180910390f35b34156104a457600080fd5b6104ac610b8c565b6040518082815260200191505060405180910390f35b6000600460009054906101000a900473ffffffffffffffffffffffffffffffffffffffff1673ffffffffffffffffffffffffffffffffffffffff163373ffffffffffffffffffffffffffffffffffffffff1614151561052057600080fd5b81600260006101000a81548160ff02191690831515021790555060019050919050565b60036020528060005260406000206000915090508060000160009054906101000a900463ffffffff16908060000160049054906101000a900463ffffffff16908060010154908060020154908060030160009054906101000a900460ff1690806004015490806005015490806006015490806007015490806008015490508a565b600260009054906101000a900460ff1681565b600460009054906101000a900473ffffffffffffffffffffffffffffffffffffffff1673ffffffffffffffffffffffffffffffffffffffff163373ffffffffffffffffffffffffffffffffffffffff1614151561063357600080fd5b600460009054906101000a900473ffffffffffffffffffffffffffffffffffffffff1673ffffffffffffffffffffffffffffffffffffffff16ff5b600460009054906101000a900473ffffffffffffffffffffffffffffffffffffffff1673ffffffffffffffffffffffffffffffffffffffff163373ffffffffffffffffffffffffffffffffffffffff161415156106ca57600080fd5b80600460006101000a81548173ffffffffffffffffffffffffffffffffffffffff021916908373ffffffffffffffffffffffffffffffffffffffff16021790555050565b600460159054906101000a900460ff1681565b60015481565b600460009054906101000a900473ffffffffffffffffffffffffffffffffffffffff1681565b600460149054906101000a900460ff1681565b600080600460009054906101000a900473ffffffffffffffffffffffffffffffffffffffff1673ffffffffffffffffffffffffffffffffffffffff163373ffffffffffffffffffffffffffffffffffffffff161415156107bf57600080fd5b600360008c63ffffffff1663ffffffff16815260200190815260200160002090508a8160000160006101000a81548163ffffffff021916908363ffffffff160217905550898160000160046101000a81548163ffffffff021916908363ffffffff1602179055508881600101816000191690555087816002018160001916905550868160030160006101000a81548160ff021916908360ff1602179055508581600401816000191690555084816005018160001916905550838160060181600019169055506001805401816007018190555082816008018190555060019150509998505050505050505050565b6000600460009054906101000a900473ffffffffffffffffffffffffffffffffffffffff1673ffffffffffffffffffffffffffffffffffffffff163373ffffffffffffffffffffffffffffffffffffffff1614151561090a57600080fd5b600160008190555060006001819055506000600260006101000a81548160ff02191690831515021790555090565b600080600460009054906101000a900473ffffffffffffffffffffffffffffffffffffffff1673ffffffffffffffffffffffffffffffffffffffff163373ffffffffffffffffffffffffffffffffffffffff1614151561099757600080fd5b6000600460146101000a81548160ff021916908360ff16021790555060001515600260009054906101000a900460ff16151514156109ec576002600460146101000a81548160ff021916908360ff1602179055505b6000600460156101000a81548160ff021916908360ff1602179055506000548b63ffffffff16141515610a36576002600460156101000a81548160ff021916908360ff1602179055505b600360008c63ffffffff1663ffffffff16815260200190815260200160002090506000548160000160006101000a81548163ffffffff021916908363ffffffff160217905550898160000160046101000a81548163ffffffff021916908363ffffffff1602179055508881600101816000191690555087816002018160001916905550868160030160006101000a81548160ff021916908360ff16021790555085816004018160001916905550848160050181600019169055508381600601816000191690555060018054018160070181905550828160080181905550600160005401600081905550826001819055506000600260006101000a81548160ff0219169083151502179055507f08c45befe3bb1b82bba3b63d456148be58a72e2749d99ffadb3d7487d87feaa16000546040518082815260200191505060405180910390a160019150509998505050505050505050565b600054815600a165627a7a723058201daa8e4d9b222d6145f23f196cbd4ded60d87123ef95cc69531e100c61405ca50029",
  "source": "pragma solidity ^0.4.18;\n\ncontract PlasmaChild_submitonly {\n\n  // 2018.04.27\n  // Version 2\n  uint256 public current_plasma_bn = 1;\n  uint256 public max_childnet_bn_included = 0;\n  bool public processing = false;\n\n  // structs\n\n  // header\n  struct PlasmaBlockHeader {\n    uint32 blockNumber;\n    uint32 numTransactions;\n    bytes32 previousBlockHash;\n    bytes32 merkleRootHash;\n    uint8 v;\n    bytes32 r;\n    bytes32 s;\n    bytes32 txHashOnMainnet;\n    uint256 start_childnet_bn;\n    uint256 end_childnet_bn;\n  }\n  mapping (uint32 => PlasmaBlockHeader) public plasmaBlockHeaders;\n\n  // Owner Address\n  address public ownerAddress;\n\n  /* // token\n  address public token; */\n\n  // Modifiers\n  modifier onlyOwner {\n    if (msg.sender != ownerAddress) revert();\n    _;\n  }\n\n  // Constructor\n  function PlasmaChild_submitonly() public {\n    ownerAddress = msg.sender;\n  }\n\n  function setProcessing(bool _flg) onlyOwner public returns (bool success) {\n    processing = _flg;\n    return true;\n  }\n\n  // update plasma header once block is created\n  function updatePlasmaBlockHeader(\n    uint32 _bn,\n    uint32 _txCount,\n    bytes32 _parentHash,\n    bytes32 _merkleRootHash,\n    uint8 _v,\n    bytes32 _r,\n    bytes32 _s,\n    bytes32 txHashOnMainnet,\n    uint256 max_bn_will_include\n    ) onlyOwner public returns (bool success) {\n\n      PlasmaBlockHeader ph = plasmaBlockHeaders[_bn];\n      ph.blockNumber = _bn;\n      ph.numTransactions = _txCount;\n      ph.previousBlockHash = _parentHash;\n      ph.merkleRootHash = _merkleRootHash;\n      ph.v = _v;\n      ph.r = _r;\n      ph.s = _s;\n      ph.txHashOnMainnet = txHashOnMainnet;\n      ph.start_childnet_bn = max_childnet_bn_included + 1;\n      ph.end_childnet_bn = max_bn_will_include;\n\n      return true;\n  }\n\n  // plasma event\n  event NewPlasmaBlockCreated(uint256 bn);\n\n  uint8 public aaa1 = 0;\n  uint8 public aaa2 = 0;\n\n  // update plasma header once block is created\n  function completePlasmaBlockHeader(\n    uint32 _bn,\n    uint32 _txCount,\n    bytes32 _parentHash,\n    bytes32 _merkleRootHash,\n    uint8 _v,\n    bytes32 _r,\n    bytes32 _s,\n    bytes32 txHashOnMainnet,\n    uint256 max_bn_will_include\n    ) onlyOwner public returns (bool success) {\n\n      aaa1 = 0;\n      if (processing == false) {\n        aaa1 = 2;\n      }\n\n      aaa2 = 0;\n      if (_bn != current_plasma_bn) {\n        aaa2 = 2;\n      }\n\n      PlasmaBlockHeader storage ph = plasmaBlockHeaders[_bn];\n      ph.blockNumber = uint32(current_plasma_bn);\n      ph.numTransactions = _txCount;\n      ph.previousBlockHash = _parentHash;\n      ph.merkleRootHash = _merkleRootHash;\n      ph.v = _v;\n      ph.r = _r;\n      ph.s = _s;\n      ph.txHashOnMainnet = txHashOnMainnet;\n      ph.start_childnet_bn = max_childnet_bn_included + 1;\n      ph.end_childnet_bn = max_bn_will_include;\n\n      // increment plasma block number\n      current_plasma_bn = current_plasma_bn + 1;\n\n      max_childnet_bn_included = max_bn_will_include;\n\n      // update processing\n      processing = false;\n\n      NewPlasmaBlockCreated(current_plasma_bn);\n\n      return true;\n  }\n\n  function resetPlasmaChild() onlyOwner public returns (bool success) {\n    current_plasma_bn = 1;\n    max_childnet_bn_included = 0;\n    processing = false;\n  }\n\n  // change ownerheaders\n  function transferOwner(address _address) public onlyOwner {\n    ownerAddress = _address;\n  }\n\n  /* // change token address\n  function setToken(address _address) public onlyOwner {\n    token = _address;\n  } */\n\n  // kill contract itself\n  function kill() onlyOwner public {\n      selfdestruct(ownerAddress);\n  }\n\n  // fallback for ether\n  function() payable public {\n    revert();\n  }\n}\n",
  "sourcePath": "/Users/kouohhashi/Desktop/plasma_test/plasma_ish/smart_contracts/contracts/PlasmaChild_submitonly.sol",
  "compiler": {
    "name": "solc",
    "version": "0.4.18+commit.9cf6e910.Emscripten.clang"
  },
  "schemaVersion": "1.0.1",
  "updatedAt": "2018-04-29T19:30:49.182Z"
}